S0180000526F636B65745F436F64655F323032302E73726563A7
S1130000B824002079030000750300007503000084
S113001000000000000000000000000000000000DC
S11300200000000000000000000000007503000054
S113003000000000000000007503000075030000CC
S113004075030000750300007503000075030000CC
S113005075030000750300007503000075030000BC
S113006075030000750300007503000075030000AC
S1130070750300007503000075030000750300009C
S1130080750300007503000075030000750300008C
S1130090750300000000000000000000750300006C
S11300A0750300007503000075030000750300006C
S11300B00000000010B5064C2378002B07D1054B37
S11300C0002B02D0044800E000BF0123237010BDC0
S11300D0340400200000000060060000084B10B546
S11300E0002B03D00749084800E000BF0748036815
S11300F0002B00D110BD064B002BFBD09847F9E72D
S113010000000000380400206006000060060000C3
S113011000000000F0B50F4B1B68002B19D00D4EEA
S11301201F2501240C488021320004E01368013BA0
S11301301360002B0DD0F3181B795BB2002BF5DB99
S11301402B4027009F404750BFF34F8FBFF36F8F63
S1130150ECE7FEE75004002000E100E0024B9B685E
S1130160024ADA607047C04600ED00E01501000065
S113017070470000044B05221A60044A5A60044B7D
S11301809B68044ADA63704710E000E0FF520700FE
S113019000ED00E071010000F0B5DE4657464E4622
S11301A04546E0B583B0802109018023334AD1500C
S11301B0BFF34F8FBFF36F8F314A13689A4653686A
S11301C091688C46D26893460022019200922D4A8F
S11301D02B49894620200F2755460821884610269A
S11301E041E0E3450DD0148D254961440C7461460A
S11301F00131CC17240F09193940091B8C46012100
S11302000191117E042421431176E6E7009A002A25
S113021010D1019B002B02D0194B62469A608022B8
S11302201201164B1A6003B03CBC90469946A24694
S1130230AB46F0BD124A5360EBE74946C918095C66
S113024011850133D917090F5B183B405B1A518B99
S1130250444621435183117E31431176012100919B
S1130260117E4907BDD4117E0029CFD0117E117EA5
S1130270117EC906F4D59D42DFD1F1E700E100E02B
S11302806004002000100042044B9B68044ADA60BA
S113029080221201034B1A607047C04600ED00E053
S11302A09901000000E100E02A4A136801210B4390
S11302B013601368DB07FCD4264B06229A811A6864
S11302C025490A401A601A682449114080225204C0
S11302D00A431A601A6822491140802252030A43D1
S11302E01A601A681F490A401A601A681E491140A8
S11302F0802292010A431A60196880225200114335
S11303001960196880200143196059681748014031
S11303105960596816480140596059680A435A603F
S11303205A6840218A435A605A6839398A435A6064
S11303302E229A751A6805390A431A605968802270
S113034052020A435A605968802292020A435A6050
S11303507047C04600100042FFFFFFBFFFFFFFF0E1
S1130360FFFFCFFFFFFFFCFFFF1FFFFFFFDFFFFFCC
S1130370FFFBFFFFFEE70000F8B52A4A2A4B9A422A
S113038011D01A00294B9A420DD2294A03339B1AE1
S11303909B0801339B000022234822498C58845037
S11303A004329A42FAD1234A234B9A420AD2D343C3
S11303B021495B1803218B4304339B18002102C29B
S11303C09342FCD11D4AFF211D4B8B439360FD39A1
S11303D090235B001B4AD1501B4AD3780325AB43BF
S11303E002242343D370D3780C27BB43082633431A
S11303F0D370164B987B302290432022104398737D
S1130400997BB943314399739A7BAA4322439A73E4
S11304100F4A536880210B4353600E4B98470E4B91
S11304209847FEE760060000000000203404002026
S11304300400002034040020B404002000ED00E097
S113044000000000007000410050004100480041DD
S113045000400041990400006D040000014A024B71
S11304601A60704740420F000000002010B5054B91
S11304709847054B9847054B9847054B9847054BBC
S11304809847FEE75D0400005D010000A90200003A
S1130490890200007501000070B50D4E0D4D002459
S11304A0AD1BAD1005D0A300F35801349847A54205
S11304B0F9D100F0C3F8084E084D0024AD1BAD106F
S11304C005D0A300F35801349847A542F9D170BD73
S11304D048060000480600004806000050060000D8
S11304E0034B10B5002B02D0024800F005F810BDF4
S11304F0000000000905000010B5010000230022DF
S1130500002000F01FF810BD70B5094B094CE41A27
S1130510A41009D0084AA518AD00ED182B68013CB9
S11305209847043D002CF9D100F092F870BDC04604
S11305305C06000060060000FFFFFF3F7047C046F6
S11305407047C046F0B54E464546DE465746E0B5D0
S1130550364D83B00600286898460F009146FFF791
S1130560EDFF334B1C68A4235B00E058002852D0F5
S113057043681F2B13DC5A1C0192002E28D1019AC8
S113058002339B0042601F502868FFF7D9FF002008
S113059003B03CBC90469946A246AB46F0BD254B01
S11305A0002B3DD0C820400000E000BF002837D019
S11305B0A42200235200A15843600160A05040329D
S11305C0835004328350013301930023002ED6D08C
S11305D09A00924682444A46882154466250C42274
S11305E05200914681444A468739994012688B46A5
S11305F00A4394464A4661461160842241465200A9
S1130600A150022EBBD102005C468D32FF3211682C
S11306100C431460B3E720004D30FF30E050A7E7EF
S11306202868FFF78DFF01204042B1E73004002025
S1130630380600000000000008000020F8B5C0469D
S1130640F8BC08BC9E467047E1040000DD000000D1
S1130650F8B5C046F8BC08BC9E467047B50000001B
S113066040420F000000000000000000F4020020DF
S11306705C030020C4030020000000000000000010
S11306800000000000000000000000000000000066
S11306900000000000000000000000000000000056
S11306A00000000000000000000000000000000046
S11306B00000000000000000000000000000000036
S11306C00000000000000000000000000000000026
S11306D00000000000000000000000000000000016
S11306E00000000000000000000000000000000006
S11306F000000000000000000000000000000000F6
S113070000000000000000000000000000000000E5
S113071001000000000000000E33CDAB34126DE682
S1130720ECDE05000B0000000000000000000000EB
S113073000000000000000000000000000000000B5
S113074000000000000000000000000000000000A5
S11307500000000000000000000000000000000095
S11307600000000000000000000000000000000085
S1070A9090040020AA
S9030000FC
